{
  "contractName": "LuxuryWatchCertificate",
  "abi": [
    {
      "inputs": [
        {
          "internalType": "string",
          "name": "_ProdID",
          "type": "string"
        },
        {
          "internalType": "string",
          "name": "_ProdName",
          "type": "string"
        },
        {
          "internalType": "string",
          "name": "_Manu",
          "type": "string"
        },
        {
          "internalType": "string",
          "name": "_ProdDate",
          "type": "string"
        },
        {
          "internalType": "string",
          "name": "_image",
          "type": "string"
        }
      ],
      "stateMutability": "nonpayable",
      "type": "constructor"
    },
    {
      "anonymous": false,
      "inputs": [
        {
          "indexed": false,
          "internalType": "string",
          "name": "ProdID",
          "type": "string"
        },
        {
          "indexed": false,
          "internalType": "string",
          "name": "ProdName",
          "type": "string"
        },
        {
          "indexed": false,
          "internalType": "string",
          "name": "Manu",
          "type": "string"
        },
        {
          "indexed": false,
          "internalType": "string",
          "name": "ProdDate",
          "type": "string"
        },
        {
          "indexed": false,
          "internalType": "string",
          "name": "image",
          "type": "string"
        }
      ],
      "name": "CertificateCreated",
      "type": "event"
    },
    {
      "anonymous": false,
      "inputs": [
        {
          "indexed": false,
          "internalType": "address",
          "name": "owner",
          "type": "address"
        },
        {
          "indexed": false,
          "internalType": "address",
          "name": "dummyAddress",
          "type": "address"
        }
      ],
      "name": "CertificateDeleted",
      "type": "event"
    },
    {
      "anonymous": false,
      "inputs": [
        {
          "indexed": false,
          "internalType": "address",
          "name": "from",
          "type": "address"
        },
        {
          "indexed": false,
          "internalType": "address",
          "name": "to",
          "type": "address"
        }
      ],
      "name": "CertificateTransferred",
      "type": "event"
    },
    {
      "anonymous": false,
      "inputs": [
        {
          "indexed": false,
          "internalType": "address",
          "name": "owner",
          "type": "address"
        },
        {
          "indexed": false,
          "internalType": "string",
          "name": "ProdID",
          "type": "string"
        },
        {
          "indexed": false,
          "internalType": "string",
          "name": "ProdName",
          "type": "string"
        },
        {
          "indexed": false,
          "internalType": "string",
          "name": "Manu",
          "type": "string"
        },
        {
          "indexed": false,
          "internalType": "string",
          "name": "ProdDate",
          "type": "string"
        },
        {
          "indexed": false,
          "internalType": "string",
          "name": "image",
          "type": "string"
        }
      ],
      "name": "CertificateUpdated",
      "type": "event"
    },
    {
      "inputs": [],
      "name": "owner",
      "outputs": [
        {
          "internalType": "address",
          "name": "",
          "type": "address"
        }
      ],
      "stateMutability": "view",
      "type": "function"
    },
    {
      "inputs": [],
      "name": "transferPrice",
      "outputs": [
        {
          "internalType": "uint256",
          "name": "",
          "type": "uint256"
        }
      ],
      "stateMutability": "view",
      "type": "function"
    },
    {
      "inputs": [
        {
          "internalType": "address payable",
          "name": "newOwner",
          "type": "address"
        },
        {
          "internalType": "uint256",
          "name": "transferPrice",
          "type": "uint256"
        }
      ],
      "name": "transferCertificate",
      "outputs": [],
      "stateMutability": "nonpayable",
      "type": "function"
    },
    {
      "inputs": [],
      "name": "deleteCertificate",
      "outputs": [],
      "stateMutability": "nonpayable",
      "type": "function"
    },
    {
      "inputs": [
        {
          "internalType": "string",
          "name": "newProdID",
          "type": "string"
        },
        {
          "internalType": "string",
          "name": "newProdName",
          "type": "string"
        },
        {
          "internalType": "string",
          "name": "newManu",
          "type": "string"
        },
        {
          "internalType": "string",
          "name": "newProdDate",
          "type": "string"
        },
        {
          "internalType": "string",
          "name": "newImage",
          "type": "string"
        }
      ],
      "name": "updateCertificate",
      "outputs": [],
      "stateMutability": "nonpayable",
      "type": "function"
    },
    {
      "inputs": [
        {
          "internalType": "string",
          "name": "_image",
          "type": "string"
        }
      ],
      "name": "setImage",
      "outputs": [],
      "stateMutability": "nonpayable",
      "type": "function"
    },
    {
      "inputs": [],
      "name": "getProdID",
      "outputs": [
        {
          "internalType": "string",
          "name": "",
          "type": "string"
        }
      ],
      "stateMutability": "view",
      "type": "function"
    },
    {
      "inputs": [],
      "name": "getProdName",
      "outputs": [
        {
          "internalType": "string",
          "name": "",
          "type": "string"
        }
      ],
      "stateMutability": "view",
      "type": "function"
    },
    {
      "inputs": [],
      "name": "getManu",
      "outputs": [
        {
          "internalType": "string",
          "name": "",
          "type": "string"
        }
      ],
      "stateMutability": "view",
      "type": "function"
    },
    {
      "inputs": [],
      "name": "getProdDate",
      "outputs": [
        {
          "internalType": "string",
          "name": "",
          "type": "string"
        }
      ],
      "stateMutability": "view",
      "type": "function"
    },
    {
      "inputs": [],
      "name": "getImage",
      "outputs": [
        {
          "internalType": "string",
          "name": "",
          "type": "string"
        }
      ],
      "stateMutability": "view",
      "type": "function"
    },
    {
      "inputs": [],
      "name": "getOwner",
      "outputs": [
        {
          "internalType": "address",
          "name": "",
          "type": "address"
        }
      ],
      "stateMutability": "view",
      "type": "function"
    }
  ],
  "bytecode": "0x60806040523480156200001157600080fd5b506040516200215b3803806200215b8339818101604052810190620000379190620002b6565b846000908162000048919062000624565b5083600190816200005a919062000624565b5082600290816200006c919062000624565b5081600390816200007e919062000624565b50806004908162000090919062000624565b5033600560006101000a81548173ffffffffffffffffffffffffffffffffffffffff021916908373ffffffffffffffffffffffffffffffffffffffff1602179055507fcfca243b1082c40bbfb730325ad1cebcb28175e2d985a3af67d5798177ab80446000600160026003600460405162000110959493929190620007ac565b60405180910390a150505050506200082c565b6000604051905090565b600080fd5b600080fd5b600080fd5b600080fd5b6000601f19601f8301169050919050565b7f4e487b7100000000000000000000000000000000000000000000000000000000600052604160045260246000fd5b6200018c8262000141565b810181811067ffffffffffffffff82111715620001ae57620001ad62000152565b5b80604052505050565b6000620001c362000123565b9050620001d1828262000181565b919050565b600067ffffffffffffffff821115620001f457620001f362000152565b5b620001ff8262000141565b9050602081019050919050565b60005b838110156200022c5780820151818401526020810190506200020f565b60008484015250505050565b60006200024f6200024984620001d6565b620001b7565b9050828152602081018484840111156200026e576200026d6200013c565b5b6200027b8482856200020c565b509392505050565b600082601f8301126200029b576200029a62000137565b5b8151620002ad84826020860162000238565b91505092915050565b600080600080600060a08688031215620002d557620002d46200012d565b5b600086015167ffffffffffffffff811115620002f657620002f562000132565b5b620003048882890162000283565b955050602086015167ffffffffffffffff81111562000328576200032762000132565b5b620003368882890162000283565b945050604086015167ffffffffffffffff8111156200035a576200035962000132565b5b620003688882890162000283565b935050606086015167ffffffffffffffff8111156200038c576200038b62000132565b5b6200039a8882890162000283565b925050608086015167ffffffffffffffff811115620003be57620003bd62000132565b5b620003cc8882890162000283565b9150509295509295909350565b600081519050919050565b7f4e487b7100000000000000000000000000000000000000000000000000000000600052602260045260246000fd5b600060028204905060018216806200042c57607f821691505b602082108103620004425762000441620003e4565b5b50919050565b60008190508160005260206000209050919050565b60006020601f8301049050919050565b600082821b905092915050565b600060088302620004ac7fffffffffffffffffffffffffffffffffffffffffffffffffffffffffffffffff826200046d565b620004b886836200046d565b95508019841693508086168417925050509392505050565b6000819050919050565b6000819050919050565b600062000505620004ff620004f984620004d0565b620004da565b620004d0565b9050919050565b6000819050919050565b6200052183620004e4565b6200053962000530826200050c565b8484546200047a565b825550505050565b600090565b6200055062000541565b6200055d81848462000516565b505050565b5b8181101562000585576200057960008262000546565b60018101905062000563565b5050565b601f821115620005d4576200059e8162000448565b620005a9846200045d565b81016020851015620005b9578190505b620005d1620005c8856200045d565b83018262000562565b50505b505050565b600082821c905092915050565b6000620005f960001984600802620005d9565b1980831691505092915050565b6000620006148383620005e6565b9150826002028217905092915050565b6200062f82620003d9565b67ffffffffffffffff8111156200064b576200064a62000152565b5b62000657825462000413565b6200066482828562000589565b600060209050601f8311600181146200069c576000841562000687578287015190505b62000693858262000606565b86555062000703565b601f198416620006ac8662000448565b60005b82811015620006d657848901518255600182019150602085019450602081019050620006af565b86831015620006f65784890151620006f2601f891682620005e6565b8355505b6001600288020188555050505b505050505050565b600082825260208201905092915050565b600081546200072b8162000413565b6200073781866200070b565b945060018216600081146200075557600181146200076c57620007a3565b60ff198316865281151560200286019350620007a3565b620007778562000448565b60005b838110156200079b578154818901526001820191506020810190506200077a565b808801955050505b50505092915050565b600060a0820190508181036000830152620007c881886200071c565b90508181036020830152620007de81876200071c565b90508181036040830152620007f481866200071c565b905081810360608301526200080a81856200071c565b905081810360808301526200082081846200071c565b90509695505050505050565b61191f806200083c6000396000f3fe608060405234801561001057600080fd5b50600436106100b45760003560e01c80638da5cb5b116100715780638da5cb5b14610169578063afa936b814610187578063e75afb4914610191578063ea2fef20146101af578063f3651cbb146101cd578063f72bfd07146101eb576100b4565b8063097d91cc146100b957806314c23faa146100d75780631c6b63f2146100f357806371adb5e61461011157806381cd81941461012d578063893d20e81461014b575b600080fd5b6100c1610207565b6040516100ce9190610c69565b60405180910390f35b6100f160048036038101906100ec9190610dd4565b610299565b005b6100fb6104c9565b6040516101089190610c69565b60405180910390f35b61012b60048036038101906101269190610edb565b61055b565b005b6101356105fe565b6040516101429190610f3d565b60405180910390f35b610153610604565b6040516101609190610f99565b60405180910390f35b61017161062e565b60405161017e9190610f99565b60405180910390f35b61018f610654565b005b610199610786565b6040516101a69190610c69565b60405180910390f35b6101b7610818565b6040516101c49190610c69565b60405180910390f35b6101d56108aa565b6040516101e29190610c69565b60405180910390f35b6102056004803603810190610200919061101e565b61093c565b005b6060600380546102169061108d565b80601f01602080910402602001604051908101604052809291908181526020018280546102429061108d565b801561028f5780601f106102645761010080835404028352916020019161028f565b820191906000526020600020905b81548152906001019060200180831161027257829003601f168201915b5050505050905090565b600560009054906101000a900473ffffffffffffffffffffffffffffffffffffffff1673ffffffffffffffffffffffffffffffffffffffff163373ffffffffffffffffffffffffffffffffffffffff1614610329576040517f08c379a000000000000000000000000000000000000000000000000000000000815260040161032090611130565b60405180910390fd5b7f4c48d863cf2b6f10909beccb3f2af8086a4acf0e3de2e97193860607b99ea588600560009054906101000a900473ffffffffffffffffffffffffffffffffffffffff1661dead60405161037e929190611150565b60405180910390a161dead600560006101000a81548173ffffffffffffffffffffffffffffffffffffffff021916908373ffffffffffffffffffffffffffffffffffffffff16021790555084600090816103d89190611325565b5083600190816103e89190611325565b5082600290816103f89190611325565b5081600390816104089190611325565b5080600490816104189190611325565b5033600560006101000a81548173ffffffffffffffffffffffffffffffffffffffff021916908373ffffffffffffffffffffffffffffffffffffffff1602179055507f3bebf418e0af121a1832b913fc90e76a9a8fb85c8cf904d4bf747d2535065ce5600560009054906101000a900473ffffffffffffffffffffffffffffffffffffffff16600060016002600360046040516104ba9695949392919061147b565b60405180910390a15050505050565b6060600180546104d89061108d565b80601f01602080910402602001604051908101604052809291908181526020018280546105049061108d565b80156105515780601f1061052657610100808354040283529160200191610551565b820191906000526020600020905b81548152906001019060200180831161053457829003601f168201915b5050505050905090565b600560009054906101000a900473ffffffffffffffffffffffffffffffffffffffff1673ffffffffffffffffffffffffffffffffffffffff163373ffffffffffffffffffffffffffffffffffffffff16146105eb576040517f08c379a00000000000000000000000000000000000000000000000000000000081526004016105e290611571565b60405180910390fd5b80600490816105fa9190611325565b5050565b60065481565b6000600560009054906101000a900473ffffffffffffffffffffffffffffffffffffffff16905090565b600560009054906101000a900473ffffffffffffffffffffffffffffffffffffffff1681565b600560009054906101000a900473ffffffffffffffffffffffffffffffffffffffff1673ffffffffffffffffffffffffffffffffffffffff163373ffffffffffffffffffffffffffffffffffffffff16146106e4576040517f08c379a00000000000000000000000000000000000000000000000000000000081526004016106db90611603565b60405180910390fd5b7f4c48d863cf2b6f10909beccb3f2af8086a4acf0e3de2e97193860607b99ea588600560009054906101000a900473ffffffffffffffffffffffffffffffffffffffff1661dead604051610739929190611150565b60405180910390a161dead600560006101000a81548173ffffffffffffffffffffffffffffffffffffffff021916908373ffffffffffffffffffffffffffffffffffffffff160217905550565b6060600280546107959061108d565b80601f01602080910402602001604051908101604052809291908181526020018280546107c19061108d565b801561080e5780601f106107e35761010080835404028352916020019161080e565b820191906000526020600020905b8154815290600101906020018083116107f157829003601f168201915b5050505050905090565b6060600080546108279061108d565b80601f01602080910402602001604051908101604052809291908181526020018280546108539061108d565b80156108a05780601f10610875576101008083540402835291602001916108a0565b820191906000526020600020905b81548152906001019060200180831161088357829003601f168201915b5050505050905090565b6060600480546108b99061108d565b80601f01602080910402602001604051908101604052809291908181526020018280546108e59061108d565b80156109325780601f1061090757610100808354040283529160200191610932565b820191906000526020600020905b81548152906001019060200180831161091557829003601f168201915b5050505050905090565b600073ffffffffffffffffffffffffffffffffffffffff168273ffffffffffffffffffffffffffffffffffffffff16036109ab576040517f08c379a00000000000000000000000000000000000000000000000000000000081526004016109a290611695565b60405180910390fd5b3073ffffffffffffffffffffffffffffffffffffffff168273ffffffffffffffffffffffffffffffffffffffff1603610a19576040517f08c379a0000000000000000000000000000000000000000000000000000000008152600401610a1090611727565b60405180910390fd5b600560009054906101000a900473ffffffffffffffffffffffffffffffffffffffff1673ffffffffffffffffffffffffffffffffffffffff168273ffffffffffffffffffffffffffffffffffffffff1603610aa9576040517f08c379a0000000000000000000000000000000000000000000000000000000008152600401610aa0906117b9565b60405180910390fd5b600560009054906101000a900473ffffffffffffffffffffffffffffffffffffffff1673ffffffffffffffffffffffffffffffffffffffff163373ffffffffffffffffffffffffffffffffffffffff1614610b39576040517f08c379a0000000000000000000000000000000000000000000000000000000008152600401610b309061184b565b60405180910390fd5b7fef3f0e9753fbfd54a4104fcf23b7d4b6f1fb45785a4fac805269c97b22c8c5b1600560009054906101000a900473ffffffffffffffffffffffffffffffffffffffff1683604051610b8c9291906118c0565b60405180910390a181600560006101000a81548173ffffffffffffffffffffffffffffffffffffffff021916908373ffffffffffffffffffffffffffffffffffffffff1602179055505050565b600081519050919050565b600082825260208201905092915050565b60005b83811015610c13578082015181840152602081019050610bf8565b60008484015250505050565b6000601f19601f8301169050919050565b6000610c3b82610bd9565b610c458185610be4565b9350610c55818560208601610bf5565b610c5e81610c1f565b840191505092915050565b60006020820190508181036000830152610c838184610c30565b905092915050565b6000604051905090565b600080fd5b600080fd5b600080fd5b600080fd5b7f4e487b7100000000000000000000000000000000000000000000000000000000600052604160045260246000fd5b610ce182610c1f565b810181811067ffffffffffffffff82111715610d0057610cff610ca9565b5b80604052505050565b6000610d13610c8b565b9050610d1f8282610cd8565b919050565b600067ffffffffffffffff821115610d3f57610d3e610ca9565b5b610d4882610c1f565b9050602081019050919050565b82818337600083830152505050565b6000610d77610d7284610d24565b610d09565b905082815260208101848484011115610d9357610d92610ca4565b5b610d9e848285610d55565b509392505050565b600082601f830112610dbb57610dba610c9f565b5b8135610dcb848260208601610d64565b91505092915050565b600080600080600060a08688031215610df057610def610c95565b5b600086013567ffffffffffffffff811115610e0e57610e0d610c9a565b5b610e1a88828901610da6565b955050602086013567ffffffffffffffff811115610e3b57610e3a610c9a565b5b610e4788828901610da6565b945050604086013567ffffffffffffffff811115610e6857610e67610c9a565b5b610e7488828901610da6565b935050606086013567ffffffffffffffff811115610e9557610e94610c9a565b5b610ea188828901610da6565b925050608086013567ffffffffffffffff811115610ec257610ec1610c9a565b5b610ece88828901610da6565b9150509295509295909350565b600060208284031215610ef157610ef0610c95565b5b600082013567ffffffffffffffff811115610f0f57610f0e610c9a565b5b610f1b84828501610da6565b91505092915050565b6000819050919050565b610f3781610f24565b82525050565b6000602082019050610f526000830184610f2e565b92915050565b600073ffffffffffffffffffffffffffffffffffffffff82169050919050565b6000610f8382610f58565b9050919050565b610f9381610f78565b82525050565b6000602082019050610fae6000830184610f8a565b92915050565b6000610fbf82610f58565b9050919050565b610fcf81610fb4565b8114610fda57600080fd5b50565b600081359050610fec81610fc6565b92915050565b610ffb81610f24565b811461100657600080fd5b50565b60008135905061101881610ff2565b92915050565b6000806040838503121561103557611034610c95565b5b600061104385828601610fdd565b925050602061105485828601611009565b9150509250929050565b7f4e487b7100000000000000000000000000000000000000000000000000000000600052602260045260246000fd5b600060028204905060018216806110a557607f821691505b6020821081036110b8576110b761105e565b5b50919050565b7f4f6e6c7920746865206f776e65722063616e207570646174652074686520636560008201527f7274696669636174652e00000000000000000000000000000000000000000000602082015250565b600061111a602a83610be4565b9150611125826110be565b604082019050919050565b600060208201905081810360008301526111498161110d565b9050919050565b60006040820190506111656000830185610f8a565b6111726020830184610f8a565b9392505050565b60008190508160005260206000209050919050565b60006020601f8301049050919050565b600082821b905092915050565b6000600883026111db7fffffffffffffffffffffffffffffffffffffffffffffffffffffffffffffffff8261119e565b6111e5868361119e565b95508019841693508086168417925050509392505050565b6000819050919050565b600061122261121d61121884610f24565b6111fd565b610f24565b9050919050565b6000819050919050565b61123c83611207565b61125061124882611229565b8484546111ab565b825550505050565b600090565b611265611258565b611270818484611233565b505050565b5b818110156112945761128960008261125d565b600181019050611276565b5050565b601f8211156112d9576112aa81611179565b6112b38461118e565b810160208510156112c2578190505b6112d66112ce8561118e565b830182611275565b50505b505050565b600082821c905092915050565b60006112fc600019846008026112de565b1980831691505092915050565b600061131583836112eb565b9150826002028217905092915050565b61132e82610bd9565b67ffffffffffffffff81111561134757611346610ca9565b5b611351825461108d565b61135c828285611298565b600060209050601f83116001811461138f576000841561137d578287015190505b6113878582611309565b8655506113ef565b601f19841661139d86611179565b60005b828110156113c5578489015182556001820191506020850194506020810190506113a0565b868310156113e257848901516113de601f8916826112eb565b8355505b6001600288020188555050505b505050505050565b600081546114048161108d565b61140e8186610be4565b94506001821660008114611429576001811461143f57611472565b60ff198316865281151560200286019350611472565b61144885611179565b60005b8381101561146a5781548189015260018201915060208101905061144b565b808801955050505b50505092915050565b600060c0820190506114906000830189610f8a565b81810360208301526114a281886113f7565b905081810360408301526114b681876113f7565b905081810360608301526114ca81866113f7565b905081810360808301526114de81856113f7565b905081810360a08301526114f281846113f7565b9050979650505050505050565b7f4f6e6c7920746865206f776e65722063616e207365742074686520696d61676560008201527f2e00000000000000000000000000000000000000000000000000000000000000602082015250565b600061155b602183610be4565b9150611566826114ff565b604082019050919050565b6000602082019050818103600083015261158a8161154e565b9050919050565b7f4f6e6c7920746865206f776e65722063616e2064656c6574652074686520636560008201527f7274696669636174652e00000000000000000000000000000000000000000000602082015250565b60006115ed602a83610be4565b91506115f882611591565b604082019050919050565b6000602082019050818103600083015261161c816115e0565b9050919050565b7f4e6577206f776e65722061646472657373206d757374206e6f74206265207a6560008201527f726f2e0000000000000000000000000000000000000000000000000000000000602082015250565b600061167f602383610be4565b915061168a82611623565b604082019050919050565b600060208201905081810360008301526116ae81611672565b9050919050565b7f436f6e747261637420616464726573732063616e6e6f74206f776e206365727460008201527f69666963617465732e0000000000000000000000000000000000000000000000602082015250565b6000611711602983610be4565b915061171c826116b5565b604082019050919050565b6000602082019050818103600083015261174081611704565b9050919050565b7f4e6577206f776e6572206d75737420626520646966666572656e742066726f6d60008201527f2063757272656e74206f776e65722e0000000000000000000000000000000000602082015250565b60006117a3602f83610be4565b91506117ae82611747565b604082019050919050565b600060208201905081810360008301526117d281611796565b9050919050565b7f4f6e6c7920746865206f776e65722063616e207472616e73666572207468652060008201527f63657274696669636174652e0000000000000000000000000000000000000000602082015250565b6000611835602c83610be4565b9150611840826117d9565b604082019050919050565b6000602082019050818103600083015261186481611828565b9050919050565b600061188661188161187c84610f58565b6111fd565b610f58565b9050919050565b60006118988261186b565b9050919050565b60006118aa8261188d565b9050919050565b6118ba8161189f565b82525050565b60006040820190506118d56000830185610f8a565b6118e260208301846118b1565b939250505056fea2646970667358221220d1eb9622798dbce4c300b5537ffde4fd0712fa9502436ad3accd4fe20b3762a364736f6c63430008130033",
  "immutableReferences": {},
  "source": "pragma solidity ^0.8.0;\n\n\nimport \"./LuxuryWatchCertificate.sol\";\n\ncontract LuxuryWatchCertificateFactory {\n    // Add a mapping to store contract addresses for each owner\n    mapping(address => address[]) public contractsByOwner;\n\n    event CertificateCreated(address contractAddress);\n\n    function createCertificate(\n        string memory _prodID,\n        string memory _prodName,\n        string memory _manu,\n        string memory _prodDate,\n        string memory _eID\n    ) public {\n        LuxuryWatchCertificate newCertificate = new LuxuryWatchCertificate(\n            _prodID,\n            _prodName,\n            _manu,\n            _prodDate,\n            _eID          \n        );\n        // Add the newly created contract address to the mapping\n        contractsByOwner[msg.sender].push(address(newCertificate));\n        emit CertificateCreated(address(newCertificate));\n    }\n\n    // Add a function to get contract addresses for a specific owner\n    function getContractsByOwner(address owner)\n        public\n        view\n        returns (address[] memory)\n    {\n        return contractsByOwner[owner];\n    }\n}\n\n\ncontract LuxuryWatchCertificate\n{\n    // Event for emitting when a certificate is created\n    event CertificateCreated(\n        string ProdID,\n        string ProdName,\n        string Manu,\n        string ProdDate,\n        string image\n    );\n\n    // Event for emitting when a certificate is transferred\n    event CertificateTransferred(\n        address from,\n        address to\n    );\n\n\n\n    // Event to show certificate is deleted\n    event CertificateDeleted(address owner, address dummyAddress);\n\n    // Event to show certificate is updated\n    event CertificateUpdated(address owner, string ProdID, string ProdName, string Manu, string ProdDate, string image);\n\n    // The serial number of the luxury watch\n    string private ProdID;\n    // The ProdName of the luxury watch\n    string private ProdName;\n    // The Manu of the luxury watch\n    string private Manu;\n    // The year of manufacture of the luxury watch\n    string private ProdDate;\n    // The image of the luxury watch\n    string private image;\n    // The owner of the luxury watch\n    address public owner;\n    // The new owner if transfer is initiated\n    // address payable public newOwner;\n    // Transfer price for watch\n    uint public transferPrice;\n    // Dummy address for deletion and updation\n    address constant DUMMY_ADDRESS = 0x000000000000000000000000000000000000dEaD;\n\n\n    // Constructor to create a new certificate\n    constructor(\n        string memory _ProdID,\n        string memory _ProdName,\n        string memory _Manu,\n        string memory _ProdDate,\n        string memory _image\n    )\n    public {\n        ProdID = _ProdID;\n        ProdName = _ProdName;\n        Manu = _Manu;\n        ProdDate = _ProdDate;\n        image = _image;\n        owner = msg.sender;\n        emit CertificateCreated(ProdID, ProdName, Manu, ProdDate, image);\n    }\n\n    // Function to transfer ownership of the certificate to a new address with a transfer price\n    function transferCertificate(address payable newOwner, uint256 transferPrice) public\n    {\n        require(newOwner != address(0), \"New owner address must not be zero.\");\n        require(newOwner != address(this), \"Contract address cannot own certificates.\");\n        require(newOwner != owner, \"New owner must be different from current owner.\");\n        require(msg.sender == owner, \"Only the owner can transfer the certificate.\");\n\n        // Send the transfer price to the current owner\n        // require(msg.sender.send(transferPrice), \"Transfer price sending failed.\");\n\n        // Transfer ownership of the certificate to the new owner\n        emit CertificateTransferred(owner, newOwner);\n        owner = newOwner;\n    }\n\n    // Function to delete the certificate\n    function deleteCertificate() public\n    {\n        require(msg.sender == owner, \"Only the owner can delete the certificate.\");\n        emit CertificateDeleted(owner, DUMMY_ADDRESS);\n        owner = DUMMY_ADDRESS;\n    }\n\n    function updateCertificate(string memory newProdID, string memory newProdName, string memory newManu, string memory newProdDate, string memory newImage) public {\n        require(msg.sender == owner, \"Only the owner can update the certificate.\");\n\n        // Delete the previous certificate by transferring ownership to the dummy address\n        emit CertificateDeleted(owner, DUMMY_ADDRESS);\n        owner = DUMMY_ADDRESS;\n\n        // Create a new certificate with the updated data and transfer ownership to the contract owner\n        ProdID = newProdID;\n        ProdName = newProdName;\n        Manu = newManu;\n        ProdDate = newProdDate;\n        image = newImage;\n        owner = msg.sender;\n        emit CertificateUpdated(owner, ProdID, ProdName, Manu, ProdDate, image);\n    }\n\n    // Function to set the image of the luxury watch\n    function setImage(string memory _image) public {\n        require(msg.sender == owner, \"Only the owner can set the image.\");\n        image = _image;\n    }\n\n    // Getter function to retrieve the serial number\n    function getProdID() public view returns (string memory) {\n        return ProdID;\n    }\n\n    // Get function to retrieve the ProdName\n    function getProdName() public view returns (string memory) {\n        return ProdName;\n    }\n\n    // Get function to retrieve the Manu\n    function getManu() public view returns (string memory) {\n        return Manu;\n    }\n\n    // Get function to retrieve the year of manufacture\n    function getProdDate() public view returns (string memory) {\n        return ProdDate;\n    }\n\n    // Get function to retrieve the image\n    function getImage() public view returns (string memory) {\n        return image;\n    }\n\n    // Get function to retrieve the owner\n    function getOwner() public view returns (address) {\n        return owner;\n    }\n\n}\n",
  "sourcePath": "D:\\Downloads\\Luxereum-Implementaion\\contracts\\LuxuryWatchCertificate.sol",
  "compiler": {
    "name": "solc",
    "version": "0.8.19+commit.7dd6d404.Emscripten.clang"
  },
  "schemaVersion": "3.4.13",
  "updatedAt": "2023-04-03T10:52:34.702Z",
  "devdoc": {
    "kind": "dev",
    "methods": {},
    "version": 1
  },
  "userdoc": {
    "kind": "user",
    "methods": {},
    "version": 1
  }
}